:020000040800F2
:10000000A00D0020E102000863370008E13200087B
:1000100061370008DF1C0008853E00080000000072
:10002000000000000000000000000000DB390008B4
:10003000E11C000800000000D9390008DD39000883
:10004000FB020008FB020008FB020008FB0200089C
:10005000FB020008FB020008FB020008FB0200088C
:10006000FB020008FB020008FB020008FB0200087C
:10007000FB020008FB020008FB020008FB0200086C
:10008000FB020008FB020008FB0200080000000061
:10009000000000000000000000000000FB0200085B
:1000A000FB020008853A0008FB020008FB0200087A
:1000B000FB020008FB020008FB020008FB0200082C
:1000C000FB020008FB020008FB020008FB0200081C
:1000D000FB0200086D3E0008793E000800000000A9
:1000E000FB020008FB020008FB0200080000000001
:1000F000000000000000000000000000FB020008FB
:1001000000000000FB020008FB020008FB020008E0
:1001100000000000000000000000000000000000DF
:10012000FB020008FB020008FB020008FB020008BB
:10013000FB020008000000000000000000000000BA
:10014000000000000000000000000000FB020008AA
:10015000FB020008FB020008FB020008FB0200088B
:10016000FB020008FB020008000000000000000085
:10017000000000000000000000000000000000007F
:1001800000000000FB02000800000000000000006A
:10019000FB02000800F002F800F092F80AA090E8D4
:1001A000000C82448344AAF10107DA4501D100F032
:1001B00087F8AFF2090EBAE80F0013F0010F18BF6D
:1001C000FB1A43F001031847544A0000744A000028
:1001D000103A24BF78C878C1FAD8520724BF30C873
:1001E00030C144BF04680C60704700000023002445
:1001F00000250026103A28BF78C1FBD8520728BF37
:1002000030C148BF0B6070476E2900F0F88270293A
:1002100000F04986662904F03880652904F03580AD
:10022000672904F03280612904F0318003681B0AD9
:1002300028BF41F08001692900F0FC80642900F0AA
:10024000F980752900F0F6806F2900F0D6857829AD
:1002500000F01586E92900F07185E42900F06E852B
:10026000F52900F06B85EF2900F0D385F82900F01F
:1002700014860368DB0928BF41F08001632901F07F
:100280002F80732901F03480E32901F03F80F329A6
:1002900001F04480002070471FB503F0F1FF00F02B
:1002A0000DFE04000020002103F0D4FF401C60601C
:1002B0000020002103F0B8FFE0601FBD10B510BDA5
:1002C00001F0C6F81146FFF7E7FF03F00BFE01F05F
:1002D000EDF803B4FFF7F2FF03BC01F031F90000C1
:1002E0000948804709480047FEE7FEE7FEE7FEE7CA
:1002F000FEE7FEE7FEE7FEE7FEE7FEE70448054906
:10030000054A064B70470000753A00089501000841
:10031000A0070020A00D0020A0090020A0090020B7
:1003200053EA020C00F069802DE9F04B4FF0000613
:10033000002B1FBFB3FA83F503FA05F424FA05F680
:100340005E4012BF1643B2FA82F502FA05F4C5F117
:1003500020051EBF22FA05FC44EA0C04203556EAAB
:10036000044C4FEA144418BF641C4FF000084FF0CF
:100370000009904271EB030C39D3002919BFB1FA7F
:1003800081F701FA07F6B0FA80F700FA07F6C7F12D
:1003900020071EBF20FA07FC46EA0C062037B6FBF2
:1003A000F4FCA7EB0507103F07F01F0BCBF120066D
:1003B0000CFA0BFB2CFA06F644BFB3460026202F9E
:1003C000A4BF5E464FF0000B5BEA060C08BF4FF07F
:1003D000010B19EB0B09ABFB027C48EB0608C01BB9
:1003E00006FB02CC0BFB03CC71EB0C01C1E70B4607
:1003F000024641464846BDE8F08B13B54FF0000079
:100400004FF00001AFF30080BDE81C4070470000D2
:100410001CB50C46064B7B4469460090204600F014
:1004200016FC04460020694600F024FC20461CBD52
:100430005B0800002DE9F04106460024106875298C
:10044000314616A510D000F046F9002802DA4042E5
:1004500013A507E031688A0701D512A502E0490714
:1004600004D511A5012401E000F03EF900210A2283
:1004700006F1240709E0B0FBF2FCB0FBF2F302FB4B
:100480001C00303078541846491C0028F3D123460C
:100490002A463046BDE8F04100F058B9000000009F
:1004A0002D0000002B000000200000002DE9F05F6F
:1004B000894604464FF0000ADFF874B1FB44C0F8E7
:1004C00020A02046E1688847002874D0252806D05F
:1004D000D4E901219047206A401C2062F1E7002600
:1004E0005F462046E16888472028054607DB312D16
:1004F00005D2781910F8200C08B10643F1E7B007CF
:1005000001D526F00406C4F81CA00027C4F818A0E2
:100510002A2D09D0284603F0DEFC38B304EB870807
:10052000303DC8F8185019E059F8041B204604EB78
:1005300087029161E1688847012F054618D1E0697B
:10054000002820DA26F020061DE0D8F8180000EB7D
:10055000800005EB40003038C8F818002046E168FC
:100560008847054603F0B7FC0028EED1012F0AD0DA
:100570002E2D08D12046E16888477F1C0546022FB2
:1005800046F02006C4DBA069002803DA404246F0AA
:100590000106A061F00701D026F010066C2D0BD0EB
:1005A000682D09D04C2D39D06A2D35D0742D35D019
:1005B0007A2D33D016E038E0E1682F462046884790
:1005C000B842054609D16C2F26D04FF48060E1680F
:1005D000064320468847054604E06C2F1AD04FF4A6
:1005E000807006430DB3A5F14100192802D82035CB
:1005F00046F400664A462946204626604E46FFF7E6
:1006000003FE80B101280BD0F61D26F0070000F193
:10061000080956E74020E4E78020D8E70020D6E725
:1006200006F104094DE7284652E7206ABDE8F09F2D
:100630005E4600004FF0000200B513469446964611
:10064000203922BFA0E80C50A0E80C50B1F12001E5
:10065000BFF4F7AF090728BFA0E80C5048BF0CC093
:100660005DF804EB890028BF40F8042B08BF7047F1
:1006700048BF20F8022B11F0804F18BF00F8012B63
:10068000704770477047704770B5044685690068C9
:10069000C10601D5302600E02026C00707D070BD76
:1006A000D4E9012130469047206A401C20626D1E2B
:1006B000F6D570BD70B5044685690078C00707D1CE
:1006C00070BDD4E9012120209047206A401C20629F
:1006D0006D1EF6D570BD09684A0501D540B2704758
:1006E000C905FCD500B2704709684A0501D5C0B2FA
:1006F0007047C905FCD580B2704770B50C460546F9
:10070000012A05D02878800600D5EA69002302E096
:10071000012305E05B1C934202D2E05C0028F9D182
:10072000A869E618C01AA861286A184428622846F1
:10073000FFF7AAFF04E0D5E9012114F8010B904767
:10074000B442F8D32846FFF7B5FF70BD2DE9F04756
:100750000D4699469246044600F124080168880631
:1007600004D5E06921F01001216000E00120A842D9
:1007700001DD471B00E00027A1697A1902EB09009F
:10078000081AA0612078C00602D42046FFF77CFF3B
:10079000002608E0D4E901211AF806009047206AF3
:1007A000401C761C20624E45F4DB2078C0060AD53A
:1007B0002046FFF769FF06E0D4E901213020904789
:1007C000206A401C2062381EA7F10107F4DC07E014
:1007D000D4E9012118F805009047206A401C2062E6
:1007E000281EA5F10105F3DC2046FFF763FF207802
:1007F000000602D50220BDE8F0870120FBE7116862
:100800000268006A530501D508700AE0D30501D5D6
:10081000088006E0130603D5C217C1E9000200E014
:1008200008600120704770472DE9FF4F0C461E46B7
:100830004FF0FF378BB0D2E90001DDF860800A90FD
:100840008A46C1F30A5505B93D46002108464FF0D6
:100850000000BAF1000F00F4400005DA00EB800060
:100860004FF4400101EA50004FEA9059B9F1010FED
:1008700000DDB9460A9850EA4A000ED044F61050FE
:10088000A5F2FF3545432F14B8F1000F1ED0754275
:10089000291E1EDDC9F100021CE0B8F1010F4FF066
:1008A000000001D0302103E0F24305E02154401C58
:1008B000B042FBDB30460022002121540B99C1F8E5
:1008C0000880C1E900200FB0BDE8F08FBD1B6D1C92
:1008D000DEE74A4600DA694206A800F023FD06ABCF
:1008E00093E8070003AB83E8070050460A9900F03D
:1008F0002EFE8DE80700A0F500501F3800900398E9
:10090000002D0ADD42F21F014A460844002303A9D4
:100910000390684601F097F809E0A0F500504A46B8
:100920001F38002303A90390684601F0A1F88DE861
:1009300007000004000C03D04FF0FF30410800E036
:100940001046B8F1000F03D00022009215461EE0B9
:10095000751E05D400F0B6FA303262556D1EF9D519
:10096000B3460122084302D000227F1C04E0207815
:10097000302801D100227F1E002A099784D01DE073
:10098000112D07DA00F09EFA303262556D1C50EAE4
:100990000102F5D1084302D00098C8B10EE0002151
:1009A000681E05E0235C625C63542254401E491CAF
:1009B0008142F7DBAB46A81B401E0990002004F8DB
:1009C0000B000B98099AC0F80880C0E9002B7AE761
:1009D00011264FF0000857E72DE9F04F88460446EE
:1009E000D21D22F0070191B0D1E90001CDE90A0141
:1009F00003F049FA02460B98C00F01D02D2007E002
:100A00002068810701D52B2002E0202101EAC000E7
:100A1000032A099001D0072A05DB034641462046F8
:100A200000F014FC0BE12078800601D5E06900E0BD
:100A30000620B8F1650F814606D0B8F1660F18D0D0
:100A4000B8F1670F70D131E00020B9F1110F0090BB
:100A500001DB112301E009F101030AAA01A90CA895
:100A6000FFF7E2FEDDE90C70002609F1010583467F
:100A700047E001204B4600904FF000470AAA01A929
:100A80000CA8FFF7D1FEDDE90DB00C995D460026FC
:100A900010B909F101000D18B9EB050003D4C0F13C
:100AA000FF3609F10105A5EB09002BE0B9F1010FB3
:100AB00001DA4FF001090020B9F1110F009048460A
:100AC00001DD112300E003460AAA01A90CA8FFF7E3
:100AD000ABFEDDE90C704D4600268346207800070A
:100AE0000AD4AB4500DA5D4601A8012D04DD4119A9
:100AF00011F8011C302907D04F4502DA17F1040F15
:100B000004DA012082460FE06D1EEEE7002F02DCC2
:100B1000ED1B3E4403E0781CA84200DD7D1CB81BA1
:100B200000F1010A4FF000472078000703D4AA45DE
:100B300001DB4FF0FF3A0021B7F1004F0DF1430800
:100B40008DF8431024D002202B23002F01DA7F429E
:100B50002D230A21021EA0F1010000DC5FB197FBEA
:100B6000F1FC97FBF1F201FB1C7C17460CF1300CF9
:100B700008F801CDEEE7A8F101000370218809050E
:100B800001D5452100E06521A0F1010800F8011C14
:100B900009980FA9A1EB0807FF1D00B10120411919
:100BA00001EBEA70A1693844081A401EA061207860
:100BB000C00602D42046FFF767FD099828B1D4E9A2
:100BC00001219047206A401C20622078C00622D56F
:100BD0002046FFF759FD1EE0002E04DBB34502DD81
:100BE00001A8805D00E03020D4E901219047206A0F
:100BF000401C2062761CAAF101005FEA000A0AD1BB
:100C000000F05CF9C0680168405CD4E901219047BC
:100C1000206A401C2062281EA5F10105DCDC07E0EB
:100C2000D4E9012118F8010B9047206A401C20628A
:100C3000381EA7F10107F3DC2046FFF73BFD032038
:100C400011B041E601694A1C02610878704700B59D
:100C50008FB0CDE901310021059105497944CDE9F5
:100C6000031011466846FFF721FC0FB000BD0000DD
:100C7000E5FFFFFF0A6802F8010B0A6070470000F9
:100C80002DE9FF5F15468A460446DFF8AC80F8443C
:100C90000027D8E900103E46CDE9001010E03AF8F0
:100CA00016106A4602A800F0AFFB411C07D021785D
:100CB000890603D5E269391891420DD80744761C9C
:100CC0002078800602D5E069B84205DDAE42E6DB59
:100CD0003AF816000028E2D1A069C01BA0612046A6
:100CE000FFF7D2FCD8E90010CDE90010002017E092
:100CF0003AF818106A4602A800F086FBB0F1FF3FF0
:100D000081460BD000250DF1080B05E0D4E9012147
:100D10001BF8050090476D1C4D45F7D308F1010005
:100D2000B0428046E4DB206A384420622046FFF768
:100D3000C1FCBDE8FF9F00009E3E00002DE9F04190
:100D40008046D21D22F007020025D2E90002F529D3
:100D500015A614D0011E72F1000106DA0023D0EBB3
:100D6000030063EB020211A608E0D8F800108B071D
:100D700001D50FA602E0490701D50EA601251146AF
:100D8000002408F1240704E000F09CF830323A55C2
:100D9000641C50EA0102F7D12B46324621464046F8
:100DA000BDE8F041FFF7D2BC000000002D000000BC
:100DB0002B0000002000000030B4002100F12404CA
:100DC00008E002F00705D208303542EA4372DB083A
:100DD0006554491C52EA0305F3D10468002310A2AC
:100DE000250707D5A40600D421B1C46901230DA2AB
:100DF000641EC46130BCFFF7A9BC10B5044621468F
:100E00001068FFF771FC02462046BDE81040002341
:100E1000D2E7D21D22F00701D1E90023CCE7000080
:100E20000000000030000000F0B40D460188090504
:100E300002D5214C7C4402E01F4C7C440E3400213E
:100E400000F1240608E002F00F071209E75D42EA0C
:100E500003721B097754491C52EA0307F3D1027845
:100E60000023120704D5702D06D009B102231134D6
:100E70002246F0BCFFF76ABC01231034F8E770B5D6
:100E800004460D4621461068FFF72EFC024629460F
:100E90002046BDE870400023C6E7D21D22F00703BC
:100EA000D3E90023C0E70368126843F0200303601E
:100EB0000823C3610023B7E7003D000000487047E6
:100EC0006007002030B5B0F10A024FEA900E71F1D0
:100ED00000034EEA817EB0EB0E0061EB91014FEA18
:100EE000101E4EEA017E10EB0E0041EB11114FEA8D
:100EF000102E4EEA016E10EB0E0041EB11214FEA6D
:100F0000104E4EEA014E10EB0E0041EB114140181D
:100F100041F100014FEAD00040EA41704FEAD101AF
:100F200010EB80054FEA810444EA907444EB01041D
:100F30006D1944EB0404521BA3414FF0000348BF5A
:100F40000A3200D530BD401C41F1000130BD000027
:100F50002DE9F04F04460D46D21D22F0070089B05E
:100F6000D0E900974846394602F08DFF0246F80F57
:100F700001D02D2307E02068810701D52B2302E053
:100F8000202101EAC0038DF820300BB1012000E0E0
:100F90000020032A824601D0072A04DB2946204686
:100FA00000F054F93FE12078800601D40D2500E0DF
:100FB000E569C7F30A560D2D49DA00214FEA175BA0
:100FC00008464FF00000002F00F4400007DA00EB65
:100FD00080004FF4400100EBD07001EA6000811501
:100FE000012901DD4FF0FF3100224FEA850CBCF1F1
:100FF000180F06D31346ACF118004FF08052C240D0
:1010000003E04FF4801323FA0CF30CF10C0CBCF149
:10101000200F04D3ACF1200C09FA0CF001E007FA20
:101020000CF000294FF0004801DD18B90FE00ED197
:1010300040450CD319EB02095F4121B9404502D16B
:101040009F4329EA0209BBEB175F00D0761C20887A
:10105000000502D57B48784402E07A487844193884
:1010600008AA302302F80A30037C0AF10101002E9D
:101070000AF1020A53546A4602DC4FF0300101E0E3
:101080004FF031014FF001088DF8001002D0A6F2A8
:10109000FF3603E059EA470100D06B4E002D02DC19
:1010A0002178090704D54FF002082E218DF8011090
:1010B000C44600210BE0C7F303433F01C35C491C56
:1010C0006D1E02F80830052908F1010801DA002D2B
:1010D000F1DC00210CE000EB1973491C1B786D1E3C
:1010E000082902F808304FEA091908F1010801DA65
:1010F000002DF0DC21688B0602D516E0A8F101086E
:10110000E04505DD02EB080313F8013C302BF5D078
:10111000B8F1000F09DD02EB080313F8013C2E2B98
:1011200003D1090701D4A8F10108002D05DD3E21F6
:1011300002F808106D1E08F10108407C002E02F82C
:10114000080008F1010804DA2D20764202F80800B0
:1011500002E02B2002F808000A214FF47A70864240
:1011600008F101080BDB96FBF0F3303302F808308E
:1011700096FBF0F308F1010800FB136601E0642E12
:101180000CDB642096FBF0F3303302F8083096FB5A
:10119000F0F308F1010800FB136601E00A2E06DBFC
:1011A00096FBF1F0303002F8080008F1010896FBD8
:1011B000F1F001FB1060303002F80800A16908F17D
:1011C000010808EB050202EB0A00081AA06120786A
:1011D000C00602D42046FFF757FA216A08AE01EB99
:1011E0000A00206204E0D4E9012116F8010B9047BF
:1011F000BAF1010AF7D22078C00602D52046FFF7DF
:1012000043FA6E4609E016F8010B3E280FD0D4E9E8
:1012100001219047206A401C2062B8F10108F2D2F7
:101220002046FFF747FA09B00320BDE8F08F206A97
:101230002844206203E0D4E90121302090476D1E4C
:10124000EBD3F8E7193B000002FCFFFF2DE9F0416A
:101250001F46044603260168072A01F4006004DBE8
:1012600008B116A505E016A503E008B115A500E034
:1012700015A521F010002060A069C01EA0610FB16B
:10128000401EA0612046FFF7FFF94FB1D4E90121CC
:1012900038469047206A401C2062C01C206206E04D
:1012A000206AFAE7D4E9012115F8010B9047761E70
:1012B000F8D22046FFF7FEF9BDE8F0814E414E001E
:1012C0006E616E00494E4600696E660010B5436956
:1012D00013B1AFF3008001E0FFF70FFA012010BD5A
:1012E000127800F124010A7000224A700122EDE711
:1012F00011684FF0FF32E9E710B5436913B1AFF35E
:10130000008001E0FFF7BCFC012010BD128800F155
:10131000240182840022C2840122EDE711684FF08B
:10132000FF32E9E72DE9F047814616468AB0354895
:1013300078440DC88DE80D0032487844801C03AC19
:101340000DC884E80D0041F69B300844372190FB1E
:10135000F1F290FBF1F5A5F1800501FB12041B3CB5
:1013600002D56442012000E00020DFF898A080460A
:101370000027FA44AAF1BE0A0EE0E0070AD032467E
:10138000684607EB470101230AEB810100F070FB7F
:101390008DE8070064107F1C002CEED1194F7F44AC
:1013A000AE3F19E0E80715D007EB04100DF1180A5D
:1013B00090E80E008AE80E00C068F04201D198194A
:1013C00008903246012306A903A800F051FB03ABA5
:1013D00083E807006D10641C002DE3D14FF001037A
:1013E00032466946B8F1000F03A802D000F02BFB8B
:1013F00001E000F03DFBC9E90001C9F808200AB08E
:10140000BDE8F087D038000070B516460C4605469A
:1014100000F044F8036893F80101012806D0FF2C7E
:101420000FD8185D68B101202C7070BDD3F807018A
:101430003246214603F2071303442846BDE87040B4
:1014400018474FF0FF3070BD00487047400700203C
:101450007546FFF7F9FFAE4605006946534620F092
:101460000700854618B020B5FEF748FFBDE82040CC
:101470004FF000064FF000074FF000084FF0000B50
:1014800021F00701AC46ACE8C009ACE8C009ACE803
:10149000C009ACE8C0098D467047000010B5FFF7E1
:1014A0000DFD001D10BD00BFAD2D000010B50446A0
:1014B000AFF300802046BDE81040FEF70ABF0000F1
:1014C0004FF0013C50F8042B51F8043B9A4221D1D3
:1014D000A2EB0C03934313EACC1317D150F8042B5F
:1014E00051F8043B9A4215D1A2EB0C03934313EA43
:1014F000CC130BD150F8042B51F8043B9A4209D17C
:10150000A2EB0C03934313EACC13DBD04FF00000A3
:10151000704700BFD01A01BAB1FA81F101F0180189
:1015200022FA01F0CB40C1F12001DBB2C0B2C01AF7
:101530002CFA01F3D11A914311EAC311E6D1704795
:1015400001491820ABBEFEE72600020070475FEAA3
:10155000400C08BF91F0000F4FEA8C234FEAC122E4
:1015600043EA51514FEA1C5018BF00F5F0404FEAD2
:10157000300018BF41F000415FEA6C5C00F0298048
:10158000BCF1FF3F08BF40F080407047130C06BF1E
:1015900012044FF0100C4FF0000C130E04BF120297
:1015A0000CF1080C130F04BF12010CF1040C930F83
:1015B00004BF92000CF1020CD30F04BF52000CF1D7
:1015C000010C11464FF00002A0F11F00A0EB0C002F
:1015D000704711F0004F08BF704731F000413FF4F1
:1015E000D5AF0B0C06BF09044FF0100C4FF0000CE8
:1015F0000B0E04BF09020CF1080C0B0F04BF09010C
:101600000CF1040C8B0F04BF89000CF1020CCB0F02
:1016100004BF49000CF1010CCCF12003A0EB0C003D
:1016200022FA03F302FA0CF241EA030100F101008D
:10163000704720F07F4C80EA030023F07F47ACEB3B
:10164000070303F57C5300F0004003F1FF032DE98D
:1016500080494FEA154B09B44FEA144325EA0B4E73
:1016600024EA03480FF2042606EB132749083E78C4
:101670005FEA320203FB0667C7F5000707FB06F6C1
:101680004FEA54374FEAD64606F1020607FB066CCE
:10169000CCF1005C4FEA1C472CEA074C07FB06F430
:1016A0000CFB06F504EB15464FEA961634BF0020F6
:1016B0004FF000404FEAD13706FB07FC4FEA1C4CC5
:1016C0000CFB0BF7D21B03FB0CF761EB07010CFBC8
:1016D0000EF7B0EB074072EB17420CFB08F734BF74
:1016E000A2EB0742B2EB074261EB17414FEA0C4411
:1016F0004FEA910706FB07FC4FEA1C4C0CFB0BF76B
:10170000B0EBC74072EB573203FB0CF734BFA2EBD0
:10171000C742B2EBC74261EB57310CFB0EF7B0EB9F
:10172000C70072EB57720CFB08F734BFA2EBC7027D
:10173000B2EBC70261EB5771039F4FEA816141EA47
:10174000921104EBCC044FEAD1374FEA826206FBD8
:1017500007FC42EA90124FEA80604FEA1C4C0CFBF7
:101760000BF7D21B03FB0CF761EB07010CFB0EF729
:10177000B0EB074072EB17420CFB08F734BFA2EB4B
:101780000742B2EB074261EB17414FEA8C554FEA33
:10179000910704EB9C2406FB07FC4FEA1C4C0CFB56
:1017A0000BF7B0EBC74072EB573203FB0CF734BFBB
:1017B000A2EBC742B2EBC74261EB57310CFB0EF70D
:1017C000B0EBC70072EB57720CFB08F734BFA2EB0B
:1017D000C702B2EBC70261EB577115EB4C254FEA1C
:1017E000816141EA92114FEA82624FEAD13742EABF
:1017F000901206FB07FC44F100044FEA80604FEAB8
:101800001C4C0CFB0BF7D21B03FB0CF761EB070125
:101810000CFB0EF7B0EB074072EB17420CFB08F71E
:1018200034BFA2EB0742B2EB074261EB174115EB65
:101830001C154FEA813141EA92414FEA823242EA75
:1018400090424FEA80304FEA0C7644F1000448EAB7
:1018500003434EEA0B484FF0000EB2EB080C71EB5D
:10186000030724BF624639464EEB0E0E4FF0000BC5
:101870000018524149414BEB0B0BB2EB080C71EBDA
:1018800003077BF1000B24BF624639464EEB0E0E78
:101890004FF0000B0018524149414BEB0B0BB2EBE0
:1018A000080C71EB03077BF1000B24BF624639463D
:1018B0004EEB0E0E51EA020718BF46F0010616EB7A
:1018C0000E7655F1000254F1000103D5BDE88901FF
:1018D000BDE80088BDE88901BDE80048B61952415D
:1018E00041EB0101A3F10103704780807F7E7D7C85
:1018F0007B7A7978777676757473727171706F6EA2
:101900006E6D6C6C6B6A6A6968686766666564644C
:10191000636362616160605F5F5E5E5D5D5C5C5BD6
:101920005B5A5A5959585857575656555555545445
:10193000535352525251515050504F4F4F4E4E4DA3
:101940004D4D4C4C4C4B4B4B4A4A4A4949494848EF
:10195000484747474746464645454544444444432F
:1019600043434342424242414141002B9C4630D4D2
:1019700077002BD01CB54FEA370703B44FF01000A7
:101980004FF01001BAF1000F06D0BCF1000FDCBF20
:1019900040F0080040F008014FF000000FBCBDE827
:1019A00010400BF1010BBBF1010F08BF5FEA1707F5
:1019B00022BF12F1010211F101014FF0004143F188
:1019C000000300F0004043EA00007047F9D35708D5
:1019D000D0E746EA064613F1400F4FEA16461FDDF0
:1019E00013F1200FDFBF16430A46002120335B426C
:1019F000BED0C3F1200746EA064602FA07F74FEACF
:101A0000164646EA0706C3F1200722FA03F201FA56
:101A100007F721FA03F14FF0000342EA0702A7E7B4
:101A200046EA020646EA06464FEA164646EA010636
:101A3000BCBF46EA0646360C4FF000034FF00002EA
:101A40004FF0000194E72DE9804C9A46934670B41C
:101A500091E8380007C831EA400C48BF34EA430C2B
:101A600003D5FFF7E6FDFFF780FFF0BCBDE8008C73
:101A70002DE9804C9A46934670B491E8380007C827
:101A800010F0804F08BF13F0804F03D100F005F82D
:101A9000FFF76BFFF0BCBDE8008C20F07F4780EAC9
:101AA000030023F07F4C07EB0C03A3F57C5300F0FD
:101AB0000040A3F1FE0392F0000F00F0B38095F018
:101AC000000F00F077802DE901494FEA11404FEAFD
:101AD000144621EA004800FB06FC24EA064708FBFE
:101AE00006F607FB08F800FB07F718EB06484CEB77
:101AF000164C4FEA124B18EB07484FEA15464CEBD1
:101B0000174022EA0B4E0BFB06FC25EA06470EFBAC
:101B100006F607FB0EFE0BFB07F71EEB064E4CEB23
:101B2000164C4FF000061EEB074E4CEB174B18EB14
:101B30000B0840F1000018EB0E0B58EB000840F1C9
:101B400000008F1A4FF000013CBFC943661B14BF51
:101B5000B5EB040C00213CBFC943F61B4FEA174408
:101B60004EEA8E0E27EA04454FEA1C4704FB076243
:101B70002CEA074C05FB07F70CFB05F604FB0CFCF5
:101B800016EB074642EB174216EB0C4642EB1C42A3
:101B90001BEB060658EB0202414146EA9E0601D5C0
:101BA000BDE80189B619524141EB0101A3F10103DE
:101BB000BDE801894FEA14454FEA114724EA05467A
:101BC00021EA074C05FB07F406FB07F70CFB06F1BF
:101BD00005FB0CFC11EB074144EB17444FEA12479D
:101BE00011EB0C4144EB1C4422EA074C05FB07F2C5
:101BF00006FB07F70CFB06F605FB0CFC16EB07468D
:101C000042EB174216EB0C4642EB1C456A1854F1A6
:101C1000000148BF7047B619524141EB0101A3F1E1
:101C20000103704795F0000F37D04FEA11424FEA99
:101C3000144721EA024624EA074C02FB07F106FB9F
:101C400007F70CFB06F402FB0CFC14EB074441EB1A
:101C500017414FEA154714EB0C4441EB1C4125EAB0
:101C6000074C02FB07F506FB07F70CFB06F602FB29
:101C70000CFC16EB074645EB174516EB0C4645EBFF
:101C80001C42121951F1000148BF7047B619524168
:101C900041EB0101A3F1010370474FEA14454FEAFC
:101CA000114724EA054621EA074C05FB07F106FB2C
:101CB00007F70CFB06F24FF0000605FB0CFC12EBDD
:101CC000074241EB174112EB0C4251EB1C4148BF5C
:101CD0007047921841EB0101A3F101037047FEE741
:101CE000704772B6FEE72DE9F0410446876D00F0BB
:101CF00065F9064694F835000025022806D08020B4
:101D0000606584F834500120BDE8F08120680168E6
:101D100021F0160101602068416921F080014161D4
:101D2000206C08B9A06C20B12068016821F008017E
:101D300001602068016821F0010101600CE000F001
:101D40003DF9801B052807D920206065032084F811
:101D5000350084F83450D7E720680068C007EED11A
:101D600094F85C103F208840B860012084F835006A
:101D700084F834500020C7E790F83510022903D0CA
:101D80008021416501207047052180F835100068E9
:101D9000016821F0010101600020704770B5044620
:101DA00000F00CF90546601C02D004480078044499
:101DB00000F004F9401BA042FAD370BD00000020DF
:101DC0002DE9F84FDFF8B8A1002201240AF1040B35
:101DD00003254FF00F090BF1040E00BF0B6804FA46
:101DE00002F63340B34273D10F7907F00307012F96
:101DF00001D0022F16D187684FEA420805FA08FC85
:101E000027EA0C07D1F80CC00CFA08FC4CEA070CC6
:101E1000C0F808C04768B7430E79C6F3001696406D
:101E20003E4346600E79F643B6070DD0C7685600AC
:101E300005FA06FC27EA0C07D1F808C00CFA06FCE4
:101E40004CEA070CC0F80CC00E7906F00306022E0F
:101E500010D1D60800EB8608D8F8206057074FEA63
:101E6000D76C09FA0CF7BE430F6907FA0CF7374332
:101E7000C8F8207006684FEA420C05FA0CF7BE431A
:101E80000F7907F0030707FA0CF7374307604E682E
:101E900016F4403F6DD03B4E376847F480473760BB
:101EA000366822F0030706F480460096364E07EBAC
:101EB000060CDCF8086897073F0F09FA07F826EACE
:101EC0000806DFF8C880404503D14FF000081EE047
:101ED0004FE0DFF8BC80404502D14FF0010816E02A
:101EE000DFF8B080404502D14FF002080FE0DFF884
:101EF000A880404502D14FF0030808E0DFF89C803D
:101F0000404502D14FF0040801E04FF0070808FAFD
:101F100007F848EA0608CCF80888DAF8006057465F
:101F2000D1F804C09E435FEACC3C00D51E433E601E
:101F3000DBF800605F46D1F804C09E435FEA8C3C4A
:101F400000D51E433E60DEF800607746D1F804C03D
:101F50009E435FEACC2C00D51E433E60084F0C37F1
:101F60003E68D1F804C09E435FEA8C2C00D51E4326
:101F70003E60521C102AFFF431AFBDE8F88F00001C
:101F8000003C014044380240003001400000024063
:101F90000004024000080240000C02400010024011
:101FA000426921EA02030A4043EA02418161704723
:101FB0000AB1816170470904FBE7000001488068AD
:101FC000704700000000002070B5040025D094F890
:101FD0003D00002520B984F83C50204600F04EF921
:101FE000242084F83D002068016821F0010101608F
:101FF0002068016841F4004101602068016821F413
:102000000041016000F0B0FA4D4A6168914201D888
:102010004C4900E04C49884201D2012070BD4B4937
:102020002368B0FBF1F15E6826F03F060E435E6068
:102030006368934206D94FF4967359434FF47A7309
:10204000B1FBF3F12368491C1E6A26F03F063143B9
:1020500019626168914210D84900401EB0FBF1F24C
:10206000521CC2F30B02042A01D2042022E0B0FB6E
:10207000F1F0401CC0F30B001CE0A268F2B301EBCE
:10208000C10303EB0116431EB3FBF6F35B1C43F4E1
:1020900080431B0549D092B301EBC10202EB011151
:1020A000401EB0FBF1F0401CC0F30B0040F4804038
:1020B00040F400402168CA694CF6FF739A4310430C
:1020C000C861D4E9071001432068026822F0C00209
:1020D00011430160D4E9030101432068826848F29A
:1020E000FF339A4311438160D4E905010843216815
:1020F000CA6822F0FF021043C86001E00EE016E05B
:102100002068016841F0010101602564202084F805
:102110003D00256384F83E50002070BD01EB410670
:10212000431EB3FBF6F35B1CB3E70120C2E701EBF0
:102130004101401EB0FBF1F0401CC0F30B00B7E7BB
:10214000A086010080841E0000093D0040420F006F
:102150002DE9F84F1F4690468A460446DDF8289040
:10216000FFF72CFF054694F83D0020287FD1192366
:10217000012240492046009501F03EF9002876D121
:1021800094F83C00012872D0012084F83C002068BB
:102190000168C90703D1016841F0010101602068AD
:1021A000016821F400610160212084F83D001020C5
:1021B00084F83E0000262664C4F824806785608D7C
:1021C00020852D48E0622B464A465146204601F0C4
:1021D0009FF890B9206841698069009036E02A46EE
:1021E0004946204601F087F950B1206C042804D1FB
:1021F0002068016841F4007101600120BDE8F88F9A
:10220000606A216800780861606A401C6062618DC4
:10221000491E6185218D491E89B221852268536935
:10222000DB435B070BD451B100781061606A401C3E
:102230006062608D401E6085208D401E20852A468C
:102240004946204601F0B2F80028CED1208D002862
:10225000C5D154F83D0B016841F4007101602020A4
:1022600004F81E09E67766770020C7E7FFE702203B
:10227000C4E70000020010000000FFFFF0B587B0C7
:10228000044614216846FEF7D5F91A4920688842A9
:102290002DD119480024016841F002010160006855
:1022A000122500F0020005904FF48060CDE9000592
:1022B000032602940420CDE90360104F6946384696
:1022C000FFF77EFD0820CDE9000502940920CDE945
:1022D000036069463846FFF773FD07481030016810
:1022E00041F480010160006800F48000059007B0AF
:1022F000F0BD0000005800403038024000040240A9
:102300000248816802781144816070470000002013
:102310000B4810B5016841F400710160016841F497
:1023200080610160016841F480710160032000F068
:102330006FF80F2000F006F800F024F8002010BD20
:10234000003C024070B50D4D04464FF47A71287878
:10235000B1FBF0F00A490968B1FBF0F000F00CFBAA
:1023600048B9102C07D200222146501E00F030F848
:1023700000206C6070BD012070BD000000000020D6
:102380000C0000200A4808B5016841F48041016052
:10239000006800F4804000900548001F016841F08B
:1023A00080510160006800F08050009008BD00007E
:1023B00044380240002809DB00F01F02012191404F
:1023C0004009800000F1E020C0F8001170470000D3
:1023D000F0B40E4B1B680C46C3F30223C3F1070590
:1023E000042D00D90425191D072901D2002300E07E
:1023F000DB1E012606FA05F1491E214099409E4048
:10240000761E16403143F0BC01F055BD0CED00E0E6
:10241000064900F0070208684FF6FF03184040EA3B
:102420000220034A10430860704700000CED00E0F2
:102430000000FA052DE9F0470E46050065D0DFF8EB
:102440001481D8F80000F7B200F00700B04207D2BC
:1024500088F80070D8F8000000F00700B04254D1AE
:1024600028683D4C810712D5400703D5206840F409
:10247000E05020602878000703D5206840F46040D1
:1024800020602068A96820F0F000084320602878C8
:10249000C0072DD0304968680839012812D00228B9
:1024A00013D0032811D00968890700292DDA216883
:1024B00021F0030101432160FFF780FD814641F2D5
:1024C000883A0EE009688903EFE709688901ECE7BB
:1024D000FFF774FDA0EB0901514502D90320BDE8C7
:1024E000F0872068696800F00C00B0EB810FEFD135
:1024F000D8F80010404601F00701B14207D9077033
:10250000006800F00700B04201D00120E7E728781A
:10251000400705D52068E96820F4E05008432060B2
:102520002878000706D52068296920F4604040EA31
:10253000C100206000F038F82168084AC1F3031197
:10254000515CC8400649086006480068FFF7FAFE7B
:102550000020C4E7003C02400838024092420008D4
:102560000C000020040000200448054900680968A8
:10257000044AC1F38221515CC84070470C0000201E
:1025800008380240A242000804480549006809686A
:10259000044AC1F34231515CC84070470C0000202E
:1025A00008380240A2420008154810B5006810F033
:1025B0000C02144813D01449042A0FD0082A0ED153
:1025C0000F4C241F2268236802F03F025B0207D5EC
:1025D0002068C0F38810A0FB010106E0084610BD8A
:1025E0002168C1F38811A1FB00010023FDF798FECB
:1025F0002168C1F30141491C4900B0FBF1F010BD55
:10260000083802400024F40040787D012DE9F84F9D
:1026100004006ED02078DFF84C93C007A9F10405C0
:102620004AD009F104000168C1F38101012908D0F1
:102630000068C0F3810002280AD1D9F800004002E6
:1026400006D52868800337D560680028E1D033E0DC
:102650006068B0F5803F10D0B0F5A02F286810D08A
:1026600020F480302860286820F48020286060688A
:10267000A8B1FFF7A3FC06460DE0286840F48030BF
:10268000F4E740F480202860F7E700BFFFF796FCEE
:10269000801B642873D828688003F7D50CE0FFF707
:1026A0008DFC064605E000BFFFF788FC801B642810
:1026B000F0D828688003F7D42078DFF8AC82800750
:1026C0004FF0000A3ED5A748001D016811F00C0F1D
:1026D00008D00068C0F3810002280BD1D9F80000AF
:1026E000400207D42868800716D5E068012800D189
:1026F00012E033E1E068B8B10120C8F80000FFF74C
:102700005DFC064605E000BFFFF758FC801B022871
:10271000C0D828688007F7D52868216920F0F8001C
:1027200040EAC10028600DE0C8F800A0FFF746FCB1
:10273000064604E0FFF742FC801B02281FD82868E9
:102740008007F7D42078000722D5864F8748616933
:10275000703771B101210160FFF730FC064604E0DB
:10276000FFF72CFC801B022809D838688007F7D5B2
:102770000EE0C0F800A0FFF721FC064605E082E06D
:10278000FFF71CFC801B02287DD838688007F7D42F
:102790002078400768D5DFF8CCB100270BF13C0B5F
:1027A000DBF80000C0000BD4DBF8001041F08051D2
:1027B000CBF80010DBF80000012700F080500090FB
:1027C0006B4E3068C00510D4306840F480703060C3
:1027D000FFF7F4FB009005E0FFF7F0FB0099401ACB
:1027E000022850D83068C005F6D55E4EA0686C3619
:1027F00001280FD00528306810D020F0010030608B
:10280000306820F004003060A068B8B1FFF7D6FB54
:1028100000900FE0306840F00100F4E740F0040061
:102820003060F7E7FFF7CAFB0099411A41F28830A0
:10283000814266D830688007F4D50EE0FFF7BEFB12
:10284000009007E0FFF7BAFB0099411A41F2883087
:10285000814256D830688007F4D42FB1DBF80010DD
:1028600021F08051CBF80010A069C8B33D49091D83
:102870000968C1F3810102294AD00228504607D0D5
:10288000C8F8600000E03CE0FFF798FB04463BE03E
:102890004746C8F86000FFF791FB064605E000BF19
:1028A000FFF78CFB801B02282BD828688001F7D407
:1028B000D4E907010843A16A2E4A490802EB014105
:1028C000626A41EA8211084394F82C1040EA0161DF
:1028D000C9F8001001203866FFF770FB044606E0D7
:1028E0003EE000BFFFF76AFB001B022809D82868FA
:1028F0008001F7D534E000BFFFF760FB001B022822
:1029000002D90320BDE8F88F28688001F4D427E0BD
:102910000128F7D0D9F80000E26900F48001914263
:102920001CD1226A00F03F01914217D147F6C071D5
:10293000626A0140B1EB821F10D1A26A4FF0FF33EF
:1029400000F4403103EB5202B1EB024F06D194F890
:102950002C1000F07060B0EB016F01D00120D1E7C6
:102960000020CFE70438024000004742800E474273
:10297000007000400000FFFF10B5401EB0F1807FE6
:1029800001D3012010BD4FF0E02460610F216017DA
:1029900001F091FA0020A06107202061002010BD05
:1029A0007047704770B590F83C20012A2CD0012464
:1029B00080F83C40022280F83D2003685A689D68F8
:1029C00022F070060A6832435A60104B02689A423D
:1029D0000ED0B2F1804F0BD00D4B9A4208D00D4B68
:1029E0009A4205D00C4B9A4202D00C4B9A4204D129
:1029F000496825F080031943916080F83D4000212B
:102A000080F83C10084670BD022070BD00000140F7
:102A10000004004000080040000C0040004001405D
:102A200010B5040003D094F83D0010B107E0012078
:102A300010BD002084F83C00204600F01FF8022062
:102A400084F83D00211D206801F022F8012084F85F
:102A5000460084F83E0084F83F0084F8400084F883
:102A6000410084F8420084F8430084F8440084F86C
:102A7000450084F83D00002010BD000008B5114A53
:102A800001681148914211D1016841F001010160D2
:102A90000068002200F00100009011461920FFF7A5
:102AA00097FCBDE808401920FFF784BC074A914213
:102AB00007D1016841F480210160006800F48020A2
:102AC000009008BD00000140443802400048014029
:102AD00090F83D10012901D001207047022180F8B3
:102AE0003D1000680E4988420ED0B0F1804F0BD0E7
:102AF0000C49884208D00C49884205D00B498842CD
:102B000002D00B49884204D1816801F007010629EF
:102B100003D0016841F0010101600020704700000E
:102B2000000001400004004000080040000C00408C
:102B30000040014090F83D10012901D0012070476C
:102B4000022180F83D100168CA6842F00102CA60A3
:102B500000680E4988420ED0B0F1804F0BD00C496E
:102B6000884208D00B49884205D00B49884202D0E0
:102B70000A49884204D1816801F00701062903D07F
:102B8000016841F001010160002070470000014030
:102B90000004004000080040000C004000400140DC
:102BA00070B5044690F83C000025012817D0012696
:102BB00084F83C60022084F83D002068826822F09E
:102BC000770222F47F4282600868502838D00DDCFA
:102BD00020284FD005DC90B3102811D14AE0022004
:102BE00070BD302846D040280AD13BE060282FD065
:102BF00070280DD0B0F5805F03D0B0F5005F12D023
:102C0000012584F83D60002084F83C00284670BD12
:102C1000CB68D1E90121206800F086FF2068816837
:102C200041F0770109E0CB68D1E90121206800F08B
:102C30007BFF2068816841F480418160E1E719E011
:102C4000CA684968206800F081FF5021206806E0CA
:102C5000CA684968206800F08AFF6021206800F097
:102C60006DFFCEE7CA684968206800F06FFF402119
:102C70002068F4E7226801461046F0E7704770B517
:102C80000446006801694FF00005C943890715D45F
:102C9000C168C943890711D4E91E01610120207769
:102CA000206880698007204602D0FFF7E7FF04E034
:102CB00000F098F8204600F096F825772068016922
:102CC000C943490717D4C168C943490713D46FF0F2
:102CD00004010161022020772068806910F4407FA0
:102CE000204602D0FFF7CAFF04E000F07BF8204640
:102CF00000F079F8257720680169C943090716D4DF
:102D0000C168C943090712D46FF0080101610420AA
:102D100020772068C0698007204602D0FFF7AEFF09
:102D200004E000F05FF8204600F05DF825772068A9
:102D30000169C943C90617D4C168C943C90613D478
:102D40006FF010010161082020772068C06910F43D
:102D5000407F204602D0FFF791FF04E000F042F8E8
:102D6000204600F040F8257720680169C943C9076B
:102D700008D1C168C943C90704D1891E0161204631
:102D800000F032F820680169C943090609D4C16816
:102D9000C943090605D46FF0800101612046FFF7A1
:102DA000FFFD20680169C943490609D4C168C943C8
:102DB000490605D46FF040010161204600F044F857
:102DC00020680169C94389060BD4C168C9438906D3
:102DD00007D46FF0200101612046BDE87040FFF785
:102DE000E0BD70BD70477047144910B5884223D1CB
:102DF000134C4FF47A71A088401C80B2B0FBF1F202
:102E000001FB12004910B0FBF1F2A08001FB12009F
:102E100020B94FF400510B48FFF7C2F8A0880A21EF
:102E2000B0FBF1F201FB1200002805D101F0E8F837
:102E3000BDE8104001F096B810BD00007C000020F5
:102E400010000020000802407047704770470000E3
:102E5000F8B5016804460868CA684B6910F00F0F9E
:102E60004FF0000559D003F0010602F49077374384
:102E700065D0C10705D0D10503D5216C41F0010112
:102E80002164410705D5D90703D0216C41F0020127
:102E90002164810705D5D90703D0216C41F00401D5
:102EA0002164010707D502F02001314303D0216CD2
:102EB00041F008012164216C00293AD0800604D534
:102EC000900602D5204600F093FE20684069216CF0
:102ED000C0F38010090700D460B3204600F061FE03
:102EE00020684069400621D52068143050E8001F52
:102EF00021F0400140E80012002AF5D1A06BA8B1F2
:102F00006C490165A06BFEF737FF002811D0A06B5C
:102F1000016D01B0BDE8F040084783060FD5930668
:102F20000DD52046BDE8F84000F062BE2046FFF710
:102F30008DFFF8BD2046FFF789FF2564F8BD266B9D
:102F40002023012E79D1C60677D5D60675D5086817
:102F5000486800904869400640D5A16B0868406801
:102F60000004000CEAD0A28D8242E7D9E085C8694E
:102F7000B0F5807F2DD020680C3050E8001F21F480
:102F8000807140E80012002AF5D12068143050E822
:102F9000001F21F0010140E80012002AF5D120684D
:102FA000143050E8001F21F0400140E80012002AD0
:102FB000F5D184F83E30256320680C3050E8001FBE
:102FC00021F0100140E80012002AF5D1A06BFEF7B5
:102FD0008AFEA08DE18D401A81B229E0A08DE18D9D
:102FE000401A81B2E08D0028A8D00029A6D0206820
:102FF0000C3050E8002F22F4907240E80026002E9A
:10300000F5D12068143050E8002F22F0010240E88A
:103010000026002EF5D184F83E30256320680C3060
:1030200050E8002F22F0100240E80023002BF5D1D9
:103030002046FFF70AFFF8BDFFE705062BD515066A
:1030400029D594F83D002128F5D1A068B0F5805F1E
:1030500001D12069B0B1206A411C21622168007849
:103060004860E08C401E0004000CE084E3D120683E
:10307000C16821F08001C1602068C16841F0400151
:10308000C160D8E7206A0088C0F308004860206A61
:10309000801C2062E5E74006CDD55006CBD5CA6836
:1030A000204622F04002CA6084F83D3000F017F953
:1030B000C1E70000933B000870B5040004D094F809
:1030C0003D00002510B106E0012070BD84F83C50A1
:1030D000204600F023F8242084F83D002068C168D1
:1030E00021F40051C160204600F0E2FD2068016932
:1030F00021F4904101612068416921F02A01416178
:103100002068C16841F40051C1602564202084F822
:103110003D0084F83E00002070BD0000F0B587B08F
:10312000044614216846FDF785FA2A4F23680022D9
:1031300029490224032507262848BB4221D1264BD2
:1031400014331F6847F010071F601B6803F010035B
:1031500005930B6843F001030B60096802AB01F0B3
:10316000010105916902CDE9001483E86400694614
:10317000FEF726FE002211462520FFF729F925201B
:1031800023E0174FBB4222D1134B10331F6847F483
:1031900000371F601B6803F4003305930B6843F08E
:1031A00001030B60096802AB01F0010105910C21DC
:1031B000CDE9001483E864006946FEF701FE0022B1
:1031C00011462620FFF704F92620FFF7F3F807B091
:1031D000F0BD000000100140303802400000024005
:1031E0000044004090F83E30202B0ED159B152B12E
:1031F00090F83C30012B08D0012380F83C300023AC
:10320000036300F0DBBD012070470220704700001F
:103210000449884204D1012203490248FFF7E2BF72
:10322000704700000C010020110000202DE9F84338
:10323000044690F83D001F4616460D4620284CD106
:10324000C5B1BEB194F83C00012846D0012084F8F5
:103250003C004FF00008C4F84080212084F83D0075
:10326000FEF7ACFEA6848146E684A068B0F5805FD8
:1032700003D004E00120BDE8F883206928B12E4680
:103280005FF0000584F83C800EE00026FAE780211C
:10329000204600F0AEFDA0B9AEB116F8010B2168D2
:1032A0004860E08C401EE084E08C4B464FF000020A
:1032B00000970028EBD14FF04001204600F099FD27
:1032C00030B10320D7E735F8020BC0F30800E6E77A
:1032D000202084F83D000020CDE70220CBE7704796
:1032E000FEE701684A69D24352050FD46FF4806249
:1032F0004A61002140F8301F202242738173026925
:1033000042F00402026101730120704700207047FF
:10331000F8B50446C06A1E460D461746082807D071
:10332000012805D010F5803F02D0206B122804D16F
:103330002068016841F480710160134600224FF05B
:1033400001112046009600F057F840B1206800684F
:10335000C00502D54FF4007020640320F8BD206939
:10336000B0F5804F0ED00620216800EAD51040F05D
:10337000F000086133463A460B49204600F070F8E9
:1033800078B902E005F0FE0000E0E8B221680861CB
:10339000054933463A46891F204600F061F8002867
:1033A000DCD00120F8BD00000800010070B5164611
:1033B0000D4604460DE02046FFF793FF08B10120BB
:1033C00070BD681C05D0FEF7F9FD801BA84207D828
:1033D00035B120684069C0434007ECD4002070BD7F
:1033E000002044F8300F20216173A073216941F05F
:1033F000200121612073E2E72DE9F0471E46904647
:103400000D460446C1F30747DDF8209008E0701C24
:1034100006D0FEF7D3FDA0EB0900B0420FD876B17D
:103420002068012F18D0806925EA00000004000CF4
:1034300014D000214145EAD00020BDE8F0870020EB
:1034400044F8300F20216173A073216941F02001FD
:10345000216120730120F0E74069E5E70121E9E7F8
:103460002DE9F0479A4691460E46044600254FF056
:103470002008C1F3074725E020684069C0434005A4
:1034800014D42068016841F40071016021686FF470
:1034900080604861256384F83D8084F83E50206C4C
:1034A00040F00400206484F83C501FE0B9F1FF3F75
:1034B00008D0FEF783FDA0EB0A0149450CD8B9F10D
:1034C000000F09D02068012F13D0806926EA000080
:1034D0000004000C0BD0CFE744F8305F84F80D8077
:1034E000A573206940F02000206125730120BDE80C
:1034F000F0874069EAE770B516460D4604460DE0D0
:103500002046FFF7EEFE08B1012070BD681C05D013
:10351000FEF754FD801BA84207D835B120684069EA
:10352000C0430006ECD4002070BD002044F8300FEA
:1035300020216173A073216941F020012161207372
:10354000E2E700002DE9F04786B014216846FDF758
:1035500071F82C480024016841F004010160016801
:1035600001F004010591016841F0800101600168EA
:1035700001F080010591016841F0010101600168DD
:1035800001F001010591016841F00201016000684C
:10359000DFF8748000F002004FF40055059000221F
:1035A00029464046FEF704FDDFF8609042F25416CB
:1035B000002231464846FEF7FBFCDFF854A06F10AE
:1035C000002239465046FEF7F3FC00950125CDE96F
:1035D0000154694640460394FEF7F2FB0096CDE99C
:1035E0000154694648460394FEF7EAFB0097CDE98B
:1035F0000154694650460394FEF7E2FB06B0BDE86D
:10360000F087000030380240000802400004024009
:10361000000002400D4810B50B4901600C494160A3
:1036200000214FF480428160C0E903124161816151
:10363000C1610162FEF7C8FC002803D0BDE810405C
:10364000FEF74FBB10BD00000058004028000020CE
:10365000A08601000B4810B5094901604A2141606C
:1036600000214FF6FE72C0E9021201618161FFF78D
:10367000D7F9002803D0BDE81040FEF732BB10BDDB
:1036800000480140C400002010B586B0002417484F
:1036900000940194029403940494134905940160E6
:1036A0004A21C0E9011440F2E731C0E90314446142
:1036B0008461FFF7B5F908B1FEF713FB4FF48050B2
:1036C000009069460948FFF76BFA08B1FEF709FB5D
:1036D000049404A905480594FFF764F9002801D073
:1036E000FEF7FFFA06B010BD000001407C0000208C
:1036F0000C4810B50A4901604FF416514160002191
:1037000081600C22C160C0E904128161C161FFF7D0
:10371000D3FC002803D0BDE81040FEF7E2BA10BD8C
:10372000001001400C0100200C4810B50A4901604E
:103730004FF416514160002181600C22C160C0E944
:1037400004128161C161FFF7B7FC002803D0BDE816
:103750001040FEF7C6BA10BD0044004050010020E2
:10376000FEE7FEE710B50021074B0A465FF00000B8
:1037700003EBC004401CC0B262548028F8D3491C3B
:10378000C9B20829F2D310BD4003002030B57F280C
:1037900010D83F290ED8CB080124084D01F00701AD
:1037A0008C4005EBC000012A05D0002A02D1C15C83
:1037B000A143C15430BDC15C2143FAE7400300205E
:1037C00010B5AE21002000F0FFFC2021002000F009
:1037D000FBFC0221002000F0F7FC0021084600F06D
:1037E000F3FC1021002000F0EFFCB021002000F0DD
:1037F000EBFCA821002000F0E7FC3F21002000F0B6
:10380000E3FCD321002000F0DFFC0021084600F09B
:10381000DBFC4021002000F0D7FCA121002000F0BB
:10382000D3FCC821002000F0CFFCDA21002000F0FA
:10383000CBFC1221002000F0C7FC8121002000F009
:10384000C3FCFF21002000F0BFFCA421002000F0F9
:10385000BBFCA621002000F0B7FCD521002000F021
:10386000B3FCF021002000F0AFFCD921002000F0D3
:10387000ABFC2221002000F0A7FCDB21002000F09F
:10388000A3FC2021002000F09FFC8D21002000F0EF
:103890009BFC1421002000F097FCAF21BDE81040F4
:1038A000002000F091BC000070B50B4E00242146B2
:1038B000002000F013F8002506EBC500015D012093
:1038C00000F082FC6D1CEDB2802DF5D3641CE4B2D7
:1038D000082CECD370BD00004003002010B5044656
:1038E000B031C9B2002000F06FFC102040EA141182
:1038F000002000F069FC04F00F01BDE8104000203A
:1039000000F062BC2DE9F04F203A8A468346D0B2DF
:10391000144900EB400000244FF6FF7901EB8008CA
:1039200008EB44000025417818F814000BEB04075D
:1039300001EB002086B230040AEB0500C1B2F8B2F8
:1039400001D5012200E00022FFF720FF6D1CEDB23F
:1039500009EA46060C2DEED3641CE4B2062CDFD334
:10396000BDE8F08FAA420008F0B517460E4604469F
:1039700000250CE031462046FFF7C4FFA41DE4B249
:10398000782C02D900240C36F6B26D1CADB27A5DEB
:10399000002AEFD1F0BD00000FB42DE9F0410C4C2E
:1039A00009AA0E4607462260251F0A480899FCF717
:1039B0002FFD80B2074A2880002121601154314632
:1039C0003846FFF7D1FFBDE8F0015DF814FB0000B9
:1039D00024000020C002002070477047FEF790BC12
:1039E00030B593B030216846FCF724FE14210CA8B2
:1039F000FCF720FE1D480024016841F08051016061
:103A0000006800F0805011901948016821F440418D
:103A100041F4004101600068022500F4404011902B
:103A200001200090000401908001CDE90650102093
:103A30000890C020099004200A900B906846FEF779
:103A4000E5FD08B172B6FEE70F20CDE90C054FF495
:103A50008050CDE90E4002210CA81094FEF7EAFC3C
:103A6000002801D072B6FEE713B030BD40380240E6
:103A7000007000400248016841F470010160704725
:103A800088ED00E00148FFF7FAB800007C00002054
:103A9000F0B502681D4B1E4C9F031E4D1E4E9842F2
:103AA00007D0B84205D0A04203D0A84201D0B0420E
:103AB00004D122F0700C4A6842EA0C02984210D0FD
:103AC000B8420ED0A0420CD0A8420AD0B04208D0D2
:103AD000124CA04205D0124CA04202D0114CA04280
:103AE00003D122F44074CA6822434C6922F0800258
:103AF000224302608A68C2620A688262984201D1E7
:103B00000969016301214161F0BD0000000001402D
:103B10000004004000080040000C0040004001404C
:103B2000004401400048014010B5846842EA032285
:103B300024F47F440A432243826010BD826822F04D
:103B400070020A4342F007018160704710B5036AB2
:103B5000046A24F001040462846924F0F00444EA55
:103B6000021423F00A020A438461026210BD10B5F8
:103B7000036A23F0100303628369046A23F4704329
:103B800043EA023224F0A00343EA01118261016298
:103B900010BD10B5806B0021C185C184FFF756F9B7
:103BA00010BD01680C3151E8002F22F4907241E8F9
:103BB0000023002BF5D10168143151E8002F22F0C9
:103BC000010241E80023002BF5D1016B012909D145
:103BD00001680C3151E8002F22F0100241E8002367
:103BE000002BF5D1202180F83E10002101637047A1
:103BF00008B590F83E10222901D0022008BD826845
:103C00004FF480539A4201D1016921B1816A9A42ED
:103C10001BD04AB10AE00268816A5268C2F3080206
:103C20000A80816A891C08E0026972B102685268E0
:103C300002F07F020A70816A491C8162C18D491EAF
:103C40000904090CC18503D019E002685268F1E744
:103C50000168CA6822F02002CA600168CA6822F4BA
:103C60008072CA6001684A6922F001024A6120211B
:103C700080F83E10016B012903D0FFF7C9FA00203C
:103C800008BD0021016301680C3151E8002F22F0CA
:103C9000100241E80023002BF5D101680A68D20622
:103CA00002D50A6849680091818DFFF7CEF8E6E7F2
:103CB00070B5044600680169E26821F4405111437F
:103CC00001612169A068E269084361691143084301
:103CD0002168CA6849F20C639A430243CA602068AB
:103CE0004169A26921F44071114341613149206861
:103CF000884202D03049884202D1FEF745FC01E0FB
:103D0000FEF732FCE2690023192164253226B2F560
:103D1000004F626828D0A0FB0101930F9200FCF7CE
:103D2000FFFA0146B0FBF5F06FF01802504301EBCB
:103D3000800006EB0010B0FBF5F000F0F002B1FBE4
:103D4000F5F002EB0012B1FBF5F06FF018035843E9
:103D500001EB800006EB0010B0FBF5F000F00F0067
:103D600021681044886070BDA0FB010192185B417E
:103D7000FCF7D6FA0146B0FBF5F00201B1FBF5F015
:103D80006FF01803584301EB800006EBC000B0FB56
:103D9000F5F000F0F80002EB4002B1FBF5F05843FB
:103DA00001EB800006EBC000B0FBF5F000F007006F
:103DB000D6E70000001001400014014081628285B6
:103DC000C28500210164222280F83E2080F83C1048
:103DD0000168CA6842F48072CA6001684A6942F0A8
:103DE00001024A610068C16841F02001C160002001
:103DF00070472DE9F041984617460E460446069D49
:103E000027E0681C25D02DB1FEF7D8F8A0EB0800FC
:103E1000A8421ED920680C3050E8001F21F4D07150
:103E200040E80012002AF5D12068143050E8001F45
:103E300021F0010140E80012002AF5D1202084F889
:103E40003D0084F83E00002084F83C000320BDE8DB
:103E5000F0812068006836EA000004D00020B842F3
:103E6000CFD00020F3E70120F9E700000148FEF77A
:103E7000EFBF00000C0100200148FEF7E9BF000081
:103E800050010020FEE703B401984100009850EA79
:103E9000C12018BF04204A0D18BF40F0010040F2B5
:103EA000FF72B2EB515F08BF40F00200012808BF6B
:103EB000052002B070470907090E002804DB00F155
:103EC000E02080F80014704700F00F0000F1E020BF
:103ED00080F8141D704730380A2801D2012070473D
:103EE00000207047FEF714FAFFF77AFDFFF72AFB70
:103EF000FFF7B0FBFFF7C8FBFFF7FAFBFFF714FC77
:103F0000FFF788FB0D48FEF715FE0D48FEF7E0FDB4
:103F100001220C490C48FFF765F9FFF751FC0B4CE7
:103F2000FFF720FC0021237809A20846FFF734FDA3
:103F3000FFF7BAFC6420FDF731FFF1E77C000020B9
:103F4000C4000020110000200C01002010000020FF
:103F5000616374696F6E5F73656C6563743D25643E
:103F60000000000010B51A4C618869B12078012862
:103F700005D0022803D0032801D0042808D1491E07
:103F80006180012805D006E000F0F0F800202070E4
:103F900010BD00F0FDF82078022801D100F0EFF804
:103FA0002078032801D100F0FCF82078042801D102
:103FB00000F000F96388227806A10F4800F018F994
:103FC00063882278BDE8104002A10C4800F010B9C7
:103FD00010000020616374696F6E5F73656C6563C8
:103FE000743D25642C616374696F6E5F636F756ED9
:103FF0007465723D25640A000C0100205001002008
:104000000C4801220A23417877290BD061290FD06F
:10401000732909D0642904D10421017042807A21D6
:1040200041707047027001E0022101704380F6E7A1
:104030000321F2E71000002010B5064C00220421F5
:104040002046FDF7B5FF20460122BDE81040510390
:10405000FDF7AEBF0004024010B5074C0122042159
:104060002046FDF7A5FF2046BDE8104000224FF492
:104070000051FDF79DBF00000004024010B5074C41
:10408000002204212046FDF793FF2046BDE81040A2
:1040900000224FF40051FDF78BBF000000040240E6
:1040A00010B500224FF480510448FDF781FF012232
:1040B000BDE8104010210248FDF77ABF0000024021
:1040C0000004024010B5012211030548FDF770FFFE
:1040D0000022BDE8104010210248FDF769BF000032
:1040E000000002400004024010B500224FF480514D
:1040F0000448FDF75DFF0022BDE810401021024892
:10410000FDF756BF000002400004024010B5064C07
:10411000002240212046FDF74BFF20460122BDE84A
:1041200010401102FDF744BF0004024010B5064CD8
:10413000012240212046FDF73BFF0022A115204629
:10414000BDE81040FDF734BF0004024010B5064C36
:10415000002240212046FDF72BFF0022A11520461A
:10416000BDE81040FDF724BF0004024010B5FFF782
:1041700085FFFFF7B9FFBDE81040FFF7E7BF10B5B7
:10418000FFF77CFFFFF79EFFBDE81040FFF7BEBFC3
:1041900010B5FFF773FFFFF783FFBDE81040FFF78F
:1041A000C5BF10B5FFF748FFFFF77AFFBDE8104025
:1041B000FFF7ACBF10B5FFF74FFFFFF783FFBDE878
:1041C0001040FFF7B3BF00001CB510B1012802D1A9
:1041D00040208DF8040064208DF805100090022323
:1041E00001AA78210148FDF7B3FF1CBD280000207B
:1041F0000FB470B50A4C06AA05462260261F09486E
:104200000599FCF705F982B23280002020604FF456
:10421000FA7304492846FFF709F870BC5DF814FBEF
:104220001C0000209401002010B500290AD0087855
:10423000002807D005487844FDF742F9002801D04E
:10424000002010BD0248784410BD0000060A00009E
:10425000FE09000010B500290AD00878002807D010
:1042600005487844FDF72CF9002801D0002010BD46
:104270000248784410BD0000F6090000EE09000075
:104280004FF04070E1EE100A7047FCF7A5BBFCF759
:104290005FBE0000000000000000010203040607EA
:1042A00008090000000001020304000000000000F3
:1042B000000000000000000000003F40000000007F
:1042C0000000000030004000300040000000090005
:1042D0000BC03D000BC03D00090018C024407FE02A
:1042E000224031800000180024C01B000D803240A5
:1042F000018003801C4027401C80074000401000C4
:10430000600000000000000000000000000000004D
:104310001F80204040200000402020401F800000DF
:104320000000090006001F800600090000000400CC
:1043300004003F8004000400000000100060000042
:104340000000000000000400040004000400040059
:1043500000000000004000000000000000000020FD
:1043600001C006003800400000001F8020402040AF
:1043700020401F800000000010403FC000400000AF
:10438000000018C021402240244018400000108046
:104390002040244024401B80000002000D0011003A
:1043A0003FC0014000003C80244024402440238042
:1043B00000001F802440244034400380000030006F
:1043C000200027C03800200000001B80244024402B
:1043D00024401B8000001C0022C0224022401F807D
:1043E0000000000000000840000000000000000085
:1043F00000000460000000000000000004000A004B
:10440000110020804040090009000900090009004E
:10441000000000004040208011000A000400180045
:10442000200023402400180000001F802040274067
:1044300029401F400000004007C039000F0001C0A4
:10444000004020403FC0244024401B8000001F80CB
:104450002040204020403080000020403FC02040CD
:1044600020401F80000020403FC024402E4030C02C
:10447000000020403FC024402E00300000000F000C
:104480001080204022403380020020403FC00400C2
:1044900004003FC02040204020403FC0204020403A
:1044A00000000060202020203FC02000200020408D
:1044B0003FC024400B0030C0204020403FC020407F
:1044C0000040004000C03FC03C0003C03C003FC073
:1044D000000020403FC00C4023003FC020001F8050
:1044E0002040204020401F80000020403FC024404A
:1044F0002400180000001F802140214020E01FA060
:10450000000020403FC02440260019C0004018C0D1
:1045100024402440224031800000300020403FC031
:1045200020403000000020003F80004000403F80DD
:10453000200020003E0001C00700380020003800A5
:1045400007C03C0007C038000000204039C006000A
:1045500039C0204000002000384007C0384020000B
:104560000000304021C02640384020C0000000003C
:1045700000007FE0402040200000000070000C00A0
:104580000380004000000000402040207FE0000049
:10459000000000002000400020000000000000108B
:1045A000001000100010001000100000000040007B
:1045B000000000000000000002800540054003C02C
:1045C000004020003FC00440044003800000000081
:1045D00003800440044006400000000003800440C3
:1045E00024403FC0004000000380054005400340D8
:1045F0000000000004401FC02440244020000000B0
:1046000002E0055005500650042020403FC0044001
:10461000040003C000400000044027C00040000028
:10462000000000100010041027E0000000002040EF
:104630003FC00140070004C00440204020403FC06C
:1046400000400040000007C0040007C0040003C091
:104650000000044007C00440040003C00040000004
:1046600003800440044003800000041007F004505D
:10467000044003800000000003800440045007F061
:104680000010044007C002400400040000000000C5
:1046900006400540054004C00000000004001F80E3
:1046A000044000400000040007800040044007C0B0
:1046B00000400400070004C001800600040006005A
:1046C00001C0070001C006000000044006C0010050
:1046D00006C0044000000410071004E0018006003A
:1046E00004000000044005C0064004400000000033
:1046F000000004007BE040200000000000000000FB
:10470000FFF000000000000040207BE004000000FB
:104710000000400080004000200020004000000019
:104720000000000000000000000000000000000089
:104730000000000000000000000000700000000009
:10474000000007F00000000000003FF00000000043
:104750000003FFF0000000001FE3FFF00000000076
:104760001FE3FFF0000000001FE3FFC00000000097
:104770001FE3FC00000000001FE3C0000000000079
:104780001FE20000000000000000007000000000B8
:10479000000008700000000000F138700000000008
:1047A0000EF37870000000001EFFF870000000009B
:1047B0001EFFFCF0000000001EFFFCF000000000E7
:1047C0001EFFFFF0000000001EFDFFE000000000E3
:1047D0001EF1EFE0000000003FE1EFC0000000002C
:1047E0003FF0E7C0000000003FF0E7E000000000FD
:1047F0003FF0EFF0000000003FE0FFF0000000009D
:104800003FF0FEF0000000003EFCFE7000000000E3
:104810001EFFFC70000000001EFFFC700000000086
:104820001EFFF870000000001EF7F8700000000086
:104830001EF38070000000001CF00000000000006B
:1048400000800000000000000000000000000000E8
:104850000000000000000000000000000000000058
:10486000000007C0000000000007FFC000000000BB
:1048700007FFFFC00000000007FFFFC000000000AE
:1048800007FFFFC00000000007FFFFC0000000009E
:1048900007FFFFC00000000007FFFFC0000000008E
:1048A00007FF83C000000000078783C000000000EE
:1048B000070783C000000000070783C00000000056
:1048C000070783C000000000070783C00000000046
:1048D000070783C000000000070783C00000000036
:1048E000070787C000000000070FFFC0000000009E
:1048F00007FFFFC00000000007FFFFC0000000002E
:1049000007FFFFC00000000007FFFFC0000000001D
:1049100007FFFF800000000007FDFC000000000012
:1049200007F8000000000000070000000000000081
:104930000000000000000000000000000000000077
:1049400000000100000000000000FFC000000000A7
:10495000007FFFC00000000007FFFFC00000000054
:1049600007FFFFC00000000007FFFFC000000000BD
:1049700007FFFFC00000000007FFFFC000000000AD
:1049800007FF83C00000000007C003C00000000054
:10499000000003C000000000000003C00000000091
:1049A000000003C000000000000003C00000000081
:1049B000000003C000000000000003C00000000071
:1049C000000003C0000000000000FFC00000000065
:1049D000003FFFC00000000007FFFFC00000000014
:1049E00007FFFFC00000000007FFFFC0000000003D
:1049F00007FFFFC00000000007FFFFC0000000002D
:104A000007FFE0000000000007E0000000000000D9
:104A10000000000000000000000000000000000096
:104A20000000000000000000000003800000000003
:104A30000001FFC00000000001FFFFC000000000F7
:104A400007FFFFC00000000007FFFFC000000000DC
:104A500007FFFFC00000000007FFFFC000000000CC
:104A600007FFFFC00000000007FE03C000000000B9
:104A7000078003C000000000070003C00000000022
:104A8000070003C000000000070003C00000000092
:104A9000070003C000000000070003C00000000082
:104AA000070303C0000000000703C7C000000000A8
:104AB0000703FFC00000000007E3FFC00000000084
:104AC00007E3FFC00000000007E3FFC00000000094
:104AD00007E3FFC00000000007E3FFC00000000084
:104AE00007E3FC000000000007E0000000000000F9
:104AF00007000000000000000000000000000000AF
:104B000000000000000000000000000000000000A5
:104B10000000000000000000000000000000040091
:104B2000000800000000000000020001000010006A
:104B300000000000000000003031323334353637D9
:104B400038394142434445464030580030313233D1
:104B500034353637383961626364656640307800D1
:104B600030313233343536373839616263646566E3
:104B7000787000303132333435363738394142437A
:104B8000444546585000000002400000000000A0CC
:104B90000000000005400000000000C80000000008
:104BA0000C4000000000409C000000001940000084
:104BB0000020BCBE0000000034400000BFC91B8EB6
:104BC00000000004B5400000504BCFD06607E2CF94
:104BD000010000006C4100003E8251AADFEEA734C4
:104BE00001000000D9420000DCB5A0E23A301F9776
:104BF000FFFFFFFFB4450000FD25A0C8E9A3C14F9A
:104C0000FFFFFFFFFF3F00000000008000000000EA
:104C1000FF3F00000000008000000000684D000819
:104C20000000002028000000D0010008904D00087E
:104C300028000020780D0000EC0100081C00000096
:104C400043000000F8FFFFFF0C0000000E00000012
:104C50000F0000002E0000001001000043000000C3
:104C6000F8FFFFFF0040404040404040404041418D
:104C70004141414040404040404040404040404031
:104C800040404040400502020202020202020202CB
:104C900002020202022020202020202020202002C8
:104CA0000202020202029090909090901010101058
:104CB00010101010101010101010101010101010F4
:104CC0000202020202028888888888880808080888
:104CD0000808080808080808080808080808080854
:104CE000020202024000000000000000000000007C
:104CF00000000000000000000000000000000000B4
:104D000000000000000000000000000000000000A3
:104D10000000000000000000000000000000000093
:104D20000000000000000000000000000000000083
:104D30000000000000000000000000000000000073
:104D40000000000000000000000000000000000063
:104D50000000000000000000000000000000000053
:104D60000000000000000000010000001000000032
:104D7000000000000024F40000000000000000001B
:104D80000000000000000000000000000000000023
:040000050800019559
:00000001FF
